:020000040800F2
:10000000E00B002039020008EB2900083525000824
:10001000E92900081B050008D13200080000000093
:10002000000000000000000000000000A52D0008F6
:100030001108000800000000ED290008092E000842
:10004000530200085302000853020008530200083C
:10005000530200085302000853020008530200082C
:10006000530200085302000853020008530200081C
:10007000530200085302000853020008530200080C
:100080003D0700084907000853020008000000006F
:100090000000000000000000000000005302000803
:1000A00053020008530200085302000853020008DC
:1000B00053020008530200085302000853020008CC
:1000C00053020008530200085302000853020008BC
:1000D000F1290008AD320008B93200080000000024
:1000E00053020008530200085302000800000000F9
:1000F00000000000000000000000000053020008A3
:1001000000000000530200085302000853020008D8
:1001100000000000000000000000000000000000DF
:100120005302000855070008530200085302000854
:100130005302000800000000000000000000000062
:100140000000000000000000000000005302000852
:10015000530200086107000853020008C532000876
:1001600053020008530200080000000000000000D5
:10017000000000000000000000000000000000007F
:100180000000000053020008000000000000000012
:10019000530200085302000800F002F800F03CF897
:1001A0000AA090E8000C82448344AAF10107DA45D2
:1001B00001D100F031F8AFF2090EBAE80F0013F0E8
:1001C000010F18BFFB1A43F0010318476C390000F8
:1001D0008C390000103A24BF78C878C1FAD8520789
:1001E00024BF30C830C144BF04680C6070470000B1
:1001F0000023002400250026103A28BF78C1FBD830
:10020000520728BF30C148BF0B6070471FB503F0CD
:100210007DFC1FBD10B510BD00F046F91146FFF77B
:10022000F5FF03F081F800F064F903B4FFF7F2FF83
:1002300003BC00F06BF900000948804709480047FB
:10024000FEE7FEE7FEE7FEE7FEE7FEE7FEE7FEE786
:10025000FEE7FEE704480549054A064B70470000E3
:100260009D2E000899010008E0050020E00B002009
:10027000E0070020E007002053EA020C00F069804C
:100280002DE9F04B4FF00006002B1FBFB3FA83F5AA
:1002900003FA05F424FA05F65E4012BF1643B2FADB
:1002A00082F502FA05F4C5F120051EBF22FA05FC0D
:1002B00044EA0C04203556EA044C4FEA144418BFB3
:1002C000641C4FF000084FF00009904271EB030CE2
:1002D00039D3002919BFB1FA81F701FA07F6B0FA4C
:1002E00080F700FA07F6C7F120071EBF20FA07FCC7
:1002F00046EA0C062037B6FBF4FCA7EB0507103FD7
:1003000007F01F0BCBF120060CFA0BFB2CFA06F6BC
:1003100044BFB3460026202FA4BF5E464FF0000B1B
:100320005BEA060C08BF4FF0010B19EB0B09ABFBA6
:10033000027C48EB0608C01B06FB02CC0BFB03CC7F
:1003400071EB0C01C1E70B46024641464846BDE849
:10035000F08B13B54FF000004FF00001AFF30080B9
:10036000BDE81C407047032A40F2308010F0030CB7
:1003700000F0158011F8013BBCF1020F624498BFF8
:1003800011F801CB00F8013B38BF11F8013BA2F195
:10039000040298BF00F801CB38BF00F8013B11F010
:1003A000030300F04F80083AC0F0088051F8043B86
:1003B000083A51F804CBA0E80810F5E7121D5CBF1D
:1003C00051F8043B40F8043BAFF30080D20724BF50
:1003D00011F8013B11F801CB48BF11F8012B24BFE4
:1003E00000F8013B00F801CB48BF00F8012B704733
:1003F0004FF0000200B5134694469646203922BFBE
:10040000A0E80C50A0E80C50B1F12001BFF4F7AF08
:10041000090728BFA0E80C5048BF0CC05DF804EBEA
:10042000890028BF40F8042B08BF704748BF20F858
:10043000022B11F0804F18BF00F8012B7047704756
:100440007047704710B5203AC0F00B80B1E81850E3
:10045000203AA0E81850B1E81850A0E81850BFF4AE
:10046000F5AF5FEA027C24BFB1E81850A0E818504D
:1004700044BF18C918C0BDE810405FEA827C24BFA1
:1004800051F8043B40F8043B08BF7047D20728BF2F
:1004900031F8023B48BF11F8012B28BF20F8023B7E
:1004A00048BF00F8012B7047754600F02BF8AE46A8
:1004B00005006946534620F00700854618B020B570
:1004C000FFF7C8FEBDE820404FF000064FF00007E0
:1004D0004FF000084FF0000B21F00701AC46ACE8EC
:1004E000C009ACE8C009ACE8C009ACE8C0098D4659
:1004F000704710B50446AFF300802046BDE81040B9
:10050000FFF793BE004870477C0500200149182082
:10051000ABBEFEE7260002007047FEE700B589B0DB
:100520000020082106908DF800008DF801108DF84C
:1005300004008DF802008DF8051007908DF8030077
:100540008DF8060002900390049005908DF8070046
:1005500002F008F8002844D002F0A2F8002840D0A9
:1005600006AA2321202002F0DFF807AA2721242051
:1005700002F0DAF802AA0321002002F0D5F86A4658
:100580000721042002F0D0F803AA0B21082002F072
:10059000CBF804AA1321102002F0C6F805AA1721EF
:1005A000142002F0C1F801AA1B21182002F0BCF8A7
:1005B0000421602002F09CF80121702002F098F8DC
:1005C00000212A2002F094F8F021292002F090F86E
:1005D0008621282002F08CF802F077F8002800D05D
:1005E000012009B000BD7FB50446002601F0A4FF3C
:1005F00060F3070515F0C00F42D0C5F38110012844
:1006000009D00021032808D00022114307D00D2271
:100610006946902008E00121F4E70122F5E702286D
:1006200004D10D226946942001F0F0FFC5F3C1000A
:10063000022828D0012020709DF800009DF80110AC
:10064000C00000EB511060609DF8040020729DF81E
:10065000050060729DF80600A0729DF80700E07228
:100660009DF8080020739DF8090060739DF80A004A
:10067000A0739DF80B00E0739DF80C002074012618
:1006800004B0304670BD022020709DF800309DF807
:100690000100DB0000F003029DF8025003EB501054
:1006A0009DF8031002EB800005EB002001EB002019
:1006B000C9E7000070B52049002504460D704D7053
:1006C0008D70CD7001F0C2FF01461B4804F1090690
:1006D00008380170006841070CD42178164A606818
:1006E00002F007FE227A33461349402001F050FF02
:1006F00081201CE0C1060CD421780F4A606802F00A
:10070000F8FD227A33460C49422001F041FF822055
:100710000DE040060ED42178074A606802F0E9FD3A
:10072000227A33460449442001F032FF842001F04C
:10073000A3FF0125284670BD08000020014800F0F5
:10074000C5B80000FC030020014800F0BFB800005D
:100750005C040020014800F0B9B80000BC0400208F
:10076000014800F0B3B800001C0500200168182300
:10077000CAB2103AB2FBF3F2054B6FF30901032A38
:100780009B5CC36500D9091D816508467047000060
:10079000163B000810B5014600208B698A6A4FF0AD
:1007A000C07453B1B3F5005F15D072B1012A0CD0FB
:1007B000022A0AD0032A09D104E01AB1012A06D07C
:1007C000022A03D1C96AC90100D5012010BDC96A36
:1007D000A142FAD010BD002AF7D0012AF2D0022A95
:1007E000F3D0032AF3D010BD30B50468256825F492
:1007F00080252560046863608368402B036803D00C
:1008000099600068C26030BD9A600068C16030BD08
:10081000704772B6FEE72DE9F0410446876D00F09F
:10082000CFFA064694F835000025022806D080202D
:10083000606584F834500120BDE8F08120680168CB
:1008400021F0160101602068416921F080014161B9
:10085000206C08B9A06C20B12068016821F0080163
:1008600001602068016821F0010101600CE000F0E6
:10087000A7FA801B052807D920206065032084F88B
:10088000350084F83450D7E720680068C007EED1FF
:1008900094F85C103F208840B860012084F835004F
:1008A00084F834500020C7E790F83510022903D0AF
:1008B0008021416501207047052180F835100068CE
:1008C000016821F001010160002070472DE9F84323
:1008D00004464FF00009CDF8009063484FF41651DC
:1008E000A56D0068B0FBF1F72E6894F85C10082045
:1008F00000FA01F131420FD021680A6852070BD586
:100900000A6822F004020A6094F85C108840A8602B
:10091000606D40F00100606594F85C104FF00108D4
:1009200008FA01F0304208D021684969090604D567
:10093000A860606D40F00200606594F85C100420CF
:100940008840304208D021680968890704D5A8602A
:10095000606D40F00400606594F85C1010208840E1
:10096000304218D021680968090714D5A8602068AA
:100970000168490304D50068000308D5A16C07E0AD
:100980000168C90503D4016821F008010160216CE8
:1009900009B12046884794F85C10202088403042F6
:1009A00031D021680968C9062DD5A86094F83500B2
:1009B00005282068016806D0490347D50068000370
:1009C0001DD4616C1CE021F01601016020684169B2
:1009D00021F080014161206C08B9A06C20B1206831
:1009E000016821F00801016094F85C103F20884004
:1009F000A86084F8358084F83490216D1FE0E16BA5
:100A000009B120468847606D00282BD0606DC00773
:100A100014D0052084F835002068016821F0010118
:100A200001600098401C0090B84203D8206800681C
:100A3000C007F6D184F8358084F83490E16C002941
:100A400010D001B02046BDE8F04308470168C90551
:100A5000D5D4016821F01001016084F8358084F854
:100A60003490CCE7BDE8F883240000202DE9F04164
:100A7000044600F0A5F906465CB1022084F8350072
:100A8000002584F834502068016821F001010160DC
:100A90000DE00120BDE8F08100F092F9801B0528EF
:100AA00005D920206065032084F83500F2E720682E
:100AB0000068C007F0D12268116820480140D4E9DD
:100AC00001031843D4E903363343184363691843D9
:100AD000A3691843E3691843236A18430843616A0A
:100AE000042903D1D4E90B1319430843106020688B
:100AF0004069666A20F0070130460E43012704284A
:100B00000CD1A06A0643E06A40B12046FFF742FEDE
:100B100020B14020606584F83570BAE720684661EE
:100B20002046FFF723FE94F85C203F21914081602E
:100B3000656584F835700020ACE700003F8010F058
:100B40002DE9F0410446866D90F834000025012817
:100B50000DD0012084F8340094F835700020012F66
:100B600007D084F8340002252846BDE8F081022031
:100B7000FBE7022784F8357060652046FFF734FEF6
:100B800094F85C103F208840B0602068016841F014
:100B900016010160206C20B12068016841F0080155
:100BA00001602068016841F001010160DCE700009C
:100BB00070B5044600F004F90546601C02D00448F4
:100BC0000078044400F0FCF8401BA042FAD370BD4A
:100BD000180000202DE9F84FDFF8B8A10022012409
:100BE00003254FF00F090AF1040BAAF1040E00BF10
:100BF0000B6804FA02F63340B34273D10F7907F061
:100C00000307012F01D0022F16D187684FEA42084F
:100C100005FA08FC27EA0C07D1F80CC00CFA08FC0E
:100C20004CEA070CC0F808C04768B7430E79C6F312
:100C3000001696403E4346600E79F643B6070DD047
:100C4000C768560005FA06FC27EA0C07D1F808C069
:100C50000CFA06FC4CEA070CC0F80CC00E7906F042
:100C60000306022E10D1D60800EB8608D8F82060C3
:100C700057074FEAD76C09FA0CF7BE430F6907FA1A
:100C80000CF73743C8F8207006684FEA420C05FAA3
:100C90000CF7BE430F7907F0030707FA0CF7374349
:100CA00007604E6816F4403F6DD03B4E376847F4FE
:100CB00080473760366822F0030706F480460096C6
:100CC000364E07EB060CDCF8086897073F0F09FA69
:100CD00007F826EA0806DFF8C880404503D14FF040
:100CE00000081EE04FE0DFF8BC80404502D14FF025
:100CF000010816E0DFF8B080404502D14FF002084D
:100D00000FE0DFF8A880404502D14FF0030808E06B
:100D1000DFF89C80404502D14FF0040801E04FF01D
:100D2000070808FA07F848EA0608CCF80888DAF84D
:100D300000605746D1F804C09E435FEACC2C00D532
:100D40001E433E60DBF800605F46D1F804C09E435E
:100D50005FEA8C2C00D51E433E60DEF800607746CB
:100D6000D1F804C09E435FEA8C3C00D51E433E6030
:100D7000084F083F3E68D1F804C09E435FEACC3C70
:100D800000D51E433E60521C102AFFF431AFBDE86F
:100D9000F88F0000083C0140443802400030014018
:100DA000000002400004024000080240000C024023
:100DB000001002400AB1816170470904FBE700009E
:100DC00001488068704700001800002070B50400DA
:100DD00025D094F83D00002520B984F83C502046E9
:100DE00000F0B8F8242084F83D002068016821F064
:100DF000010101602068016841F400410160206840
:100E0000016821F40041016000F00CFA4D4A61686C
:100E1000914201D84C4900E04C49884201D201205E
:100E200070BD4B492368B0FBF1F15E6826F03F06C8
:100E30000E435E606368934206D94FF4967359433C
:100E40004FF47A73B1FBF3F12368491C1E6A26F054
:100E50003F06314319626168914210D84900401E33
:100E6000B0FBF1F2521CC2F30B02042A01D204209F
:100E700022E0B0FBF1F0401CC0F30B001CE0A268C4
:100E8000F2B301EBC10303EB0116431EB3FBF6F310
:100E90005B1C43F480431B0549D092B301EBC102B4
:100EA00002EB0111401EB0FBF1F0401CC0F30B003F
:100EB00040F4804040F400402168CA694CF6FF735A
:100EC0009A431043C861D4E90710014320680268BF
:100ED00022F0C00211430160D4E9030101432068FC
:100EE000826848F2FF339A4311438160D4E90501D7
:100EF00008432168CA6822F0FF021043C86001E07D
:100F00000EE016E02068016841F0010101602564EF
:100F1000202084F83D00256384F83E50002070BDF9
:100F200001EB4106431EB3FBF6F35B1CB3E7012064
:100F3000C2E701EB4101401EB0FBF1F0401CC0F3E1
:100F40000B00B7E7A086010080841E0000093D0069
:100F500040420F0010B586B0044614216846FFF7E2
:100F600047FA13492068884220D1124800210268BC
:100F700042F002020260006800F002000590C0200A
:100F800000901220CDE90101032003900420049079
:100F900069460948FFF71EFE06481030016841F413
:100FA00000110160006800F40010059006B010BD4B
:100FB000005400403038024000040240024881687A
:100FC0000278114481607047180000200B4810B56A
:100FD000016841F400710160016841F480610160C1
:100FE000016841F480710160032000F06FF80F2068
:100FF00000F006F800F024F8002010BD003C02408C
:1010000070B50D4D04464FF47A712878B1FBF0F0BD
:101010000A490968B1FBF0F000F083FF48B9102CD1
:1010200007D200222146501E00F030F800206C60EC
:1010300070BD012070BD00001800002024000020B9
:101040000A4808B5016841F480410160006800F475
:10105000804000900548001F016841F08051016008
:10106000006800F08050009008BD00004438024045
:10107000002809DB00F01F02012191404009800097
:1010800000F1E020C0F8001170470000F0B40E4BF2
:101090001B680C46C3F30223C3F10705042D00D9D6
:1010A0000425191D072901D2002300E0DB1E0126BB
:1010B00006FA05F1491E214099409E40761E1640D1
:1010C0003143F0BC02F005B90CED00E0064900F038
:1010D000070208684FF6FF03184040EA0220034A5F
:1010E00010430860704700000CED00E00000FA05B6
:1010F0002DE9F0470E46050065D0DFF81481D8F8D9
:101100000000F7B200F00700B04207D288F8007084
:10111000D8F8000000F00700B04254D128683D4CD8
:10112000810712D5400703D5206840F4E0502060C5
:101130002878000703D5206840F4604020602068CC
:10114000A96820F0F000084320602878C0072DD05F
:10115000304968680839012812D0022813D00328C2
:1011600011D00968890700292DDA216821F00301CF
:1011700001432160FFF724FE814641F2883A0EE0E8
:1011800009688903EFE709688901ECE7FFF718FEB2
:10119000A0EB0901514502D90320BDE8F087206882
:1011A000696800F00C00B0EB810FEFD1D8F80010A7
:1011B000404601F00701B14207D90770006800F00E
:1011C0000700B04201D00120E7E72878400705D5A5
:1011D0002068E96820F4E050084320602878000780
:1011E00006D52068296920F4604040EAC1002060EB
:1011F00000F038F82168084AC1F30311515CC84077
:101200000649086006480068FFF7FAFE0020C4E7B8
:10121000003C0240083802401E3B00082400002029
:101220001C0000200448054900680968044AC1F30D
:101230008221515CC84070472400002008380240D9
:101240002E3B00080448054900680968044AC1F3B8
:101250004231515CC84070472400002008380240E9
:101260002E3B0008154810B5006810F00C02144819
:1012700013D01449042A0FD0082A0ED10F4C241F72
:101280002268236802F03F025B0207D52068C0F3A2
:101290008810A0FB010106E0084610BD2168C1F3DB
:1012A0008811A1FB00010023FEF7E6FF2168C1F3CE
:1012B0000141491C4900B0FBF1F010BD0838024063
:1012C0000024F40040787D012DE9F84F04006ED031
:1012D0002078DFF84C93C007A9F104054AD009F142
:1012E00004000168C1F38101012908D00068C0F33E
:1012F000810002280AD1D9F80000400206D52868EA
:10130000800337D560680028E1D033E06068B0F52D
:10131000803F10D0B0F5A02F286810D020F4803086
:101320002860286820F4802028606068A8B1FFF752
:1013300047FD06460DE0286840F48030F4E740F4AD
:1013400080202860F7E700BFFFF73AFD801B642884
:1013500073D828688003F7D50CE0FFF731FD064607
:1013600005E000BFFFF72CFD801B6428F0D828683B
:101370008003F7D42078DFF8AC8280074FF0000AB2
:101380003ED5A748001D016811F00C0F08D0006879
:10139000C0F3810002280BD1D9F80000400207D425
:1013A0002868800716D5E068012800D112E033E1F3
:1013B000E068B8B10120C8F80000FFF701FD06465B
:1013C00005E000BFFFF7FCFC801B0228C0D828689E
:1013D0008007F7D52868216920F0F80040EAC100AD
:1013E00028600DE0C8F800A0FFF7EAFC064604E01C
:1013F000FFF7E6FC801B02281FD828688007F7D477
:101400002078000722D5864F87486169703771B10F
:1014100001210160FFF7D4FC064604E0FFF7D0FC91
:10142000801B022809D838688007F7D50EE0C0F87D
:1014300000A0FFF7C5FC064605E082E0FFF7C0FC10
:10144000801B02287DD838688007F7D420784007B1
:1014500068D5DFF8CCB100270BF13C0BDBF80000BE
:10146000C0000BD4DBF8001041F08051CBF8001025
:10147000DBF80000012700F0805000906B4E3068D0
:10148000C00510D4306840F480703060FFF798FCDD
:10149000009005E0FFF794FC0099401A022850D80C
:1014A0003068C005F6D55E4EA0686C3601280FD0B6
:1014B0000528306810D020F001003060306820F03E
:1014C00004003060A068B8B1FFF77AFC00900FE02C
:1014D000306840F00100F4E740F004003060F7E7C6
:1014E000FFF76EFC0099411A41F28830814266D8BC
:1014F00030688007F4D50EE0FFF762FC009007E04B
:10150000FFF75EFC0099411A41F28830814256D8BB
:1015100030688007F4D42FB1DBF8001021F080513F
:10152000CBF80010A069C8B33D49091D0968C1F393
:10153000810102294AD00228504607D0C8F860002D
:1015400000E03CE0FFF73CFC04463BE04746C8F8BF
:101550006000FFF735FC064605E000BFFFF730FCF2
:10156000801B02282BD828688001F7D4D4E9070112
:101570000843A16A2E4A490802EB0141626A41EA26
:101580008211084394F82C1040EA0161C9F8001058
:1015900001203866FFF714FC044606E03EE000BF79
:1015A000FFF70EFC001B022809D828688001F7D538
:1015B00034E000BFFFF704FC001B022802D903201F
:1015C000BDE8F88F28688001F4D427E00128F7D01F
:1015D000D9F80000E26900F4800191421CD1226A2E
:1015E00000F03F01914217D147F6C071626A014095
:1015F000B1EB821F10D1A26A4FF0FF3300F44031EB
:1016000003EB5202B1EB024F06D194F82C1000F01C
:101610007060B0EB016F01D00120D1E70020CFE76F
:101620000438024000004742800E474200700040EC
:101630000000FFFF704790F85100704738B501680F
:1016400004464A688868C043430606D5C30704D1E8
:10165000D3435B0601D4216C05E0830708D4D34350
:101660001B0605D4616C01B02046BDE83040084738
:10167000830603D5430601D5C30551D4D3439B0646
:101680004ED443060AD494F85130032B49D0636DED
:1016900043F004036365CB688B680093830609D429
:1016A000636D43F0010363658B6800930B6823F05F
:1016B00040030B60C00506D4606D40F00800606513
:1016C000206880680090606D002829D020684168FB
:1016D00021F0E0014160012084F85100900701D41D
:1016E000D00722D02068416821F003014160114DEC
:1016F000E06C40B10565E06CFFF7D6F818B1606D9D
:1017000040F040006065A06C002809D00565A06C21
:10171000FFF7CAF8002803D0606D40F04000606514
:1017200038BDC8688868009038BD2046FFF782FF42
:1017300038BD0000992B000870B5040009D0606A1C
:10174000002540B125616561A56294F8510040B162
:101750000CE0012070BD6068B0F5827FF4D0E561D7
:10176000F2E784F85050204600F044F8022084F854
:1017700051002068016821F040010160A0882189A2
:1017800000F4827001F404410843A18901F400616E
:101790000843217C01F002010843217D01F0010191
:1017A0000843218B01F400710843217F01F03801C7
:1017B000084394F8201001F080010843218D01F4C2
:1017C0000051084321680860A069042101EA104023
:1017D00094F8241001F01001084321684860206843
:1017E000C16921F40061C1616565012084F851007F
:1017F000002070BD70B586B0044614216846FEF71F
:10180000F7FD284E226800212748022303240525DE
:10181000B2421DD1244A1432166846F4805616602E
:10182000126802F480520592026842F001020260DE
:10183000006802AA00F00100059082E83200E02072
:10184000CDE9000369461948FFF7C4F906B070BD39
:10185000174EB242FAD1144A1032166846F4804646
:101860001660126802F480420592026842F0020299
:101870000260006802AA00F00200059082E83200CF
:101880004FF44440CDE9000369460A48FFF7A2F946
:10189000002211462420FFF7F9FB2420FFF7E8FB84
:1018A000D4E7000000300140303802400000024020
:1018B00000380040000402402DE9F84F044690F83B
:1018C00051001D4616460F46012838D160684FF07A
:1018D0000408B0F5827F01D1A06830B3FFF770FA39
:1018E0008246002F75D0002E73D094F85000012846
:1018F00025D04FF0010984F8509084F851804FF0C2
:101900000008C4F85480A763A687E687C4F830802F
:10191000A4F83480A4F83680C4F84080C4F8448029
:10192000A068B0F5004F0CD015E084F8518000930A
:1019300013460A46204600F0ACF9BDE8F88F0220B5
:10194000FBE72068016821F0400101602068016820
:1019500021F48041016020680168490603D40168D0
:1019600041F040010160E068C0B134E02068816866
:10197000C90709D0007BA16B0870A06B401CA06355
:10198000E08F401EE08709E0FFF71AFAA0EB0A009B
:10199000A84202D3681C01D032E085B3E08F002852
:1019A000E4D11BE020688168C90709D0C068A16B39
:1019B0000880A06B801CA063E08F401EE0870AE0D7
:1019C000FFF7FEF9A0EB0A00A84203D3681C02D07F
:1019D00016E012E09DB1E08F0028E3D1524629467F
:1019E000204601F0E1F808B12020606584F85190AC
:1019F00084F85080606D00289FD001209DE7FFE7AC
:101A000084F8519084F85080032096E730B4134650
:101A100090F85120012A27D1846804221CB9456816
:101A2000B5F5827F17D0E1B1DBB190F85050012DB0
:101A30001AD0012580F8505080F8512000224265CC
:101A400081638387C38702638286C2864264C168DA
:101A500061B116490BE080F8512030BC0A4600F015
:101A600011BA012030BC70470220FBE71049016425
:101A7000B4F5004F09D101680B6823F040030B60F7
:101A800001680B6823F480430B6001680B685B06F8
:101A900003D40B6843F040030B6080F850200068CB
:101AA000416841F0600141600020DBE7892C0008BB
:101AB000A92C000870B51B4988422BD11A4D00246F
:101AC000285D242823D1291948784D281FD18878EA
:101AD0003E281CD10879C82819D113481A228E3003
:101AE000491DFEF740FC10498E3101F17A000A8849
:101AF00002804A8842808A888280CA88C2800A8995
:101B000002814A8942818A898281C989C181641C92
:101B10001A2CD5DBBDE87040402203490148FFF78D
:101B200075BF0000CC020020E80000202DE9F84F2E
:101B3000984616468A460446FFF742F9814694F8CD
:101B4000510001281ED1BAF1000F73D0002E71D0C0
:101B500094F85000012815D0012784F85070032014
:101B600084F8510000256565C4F830A0A686E68695
:101B7000A563A587E58765642564A068B0F5004F77
:101B800003D00CE00220BDE8F88F2068016821F046
:101B9000400101602068016841F4804101602068D3
:101BA0000168490603D4016841F040010160E06822
:101BB000B0F5006F606803D048B3012E27D047E02E
:101BC00008B1012E1FD1206B21680088C86006E093
:101BD00020688168890709D5216B0988C160206B5D
:101BE000801C2063E08E401EE0860CE0FFF7E8F8E2
:101BF000A0EB0901414503D3B8F1FF3F03D035E025
:101C0000B8F1000F32D0E08E0028E1D123E0206B44
:101C100021680078087306E02068816889070AD582
:101C2000216B09780173206B401C2063E08E401EFD
:101C3000E0860DE02BE0FFF7C3F8A0EB090141457A
:101C400003D3B8F1FF3F03D010E0B8F1000F0DD07F
:101C5000E08E0028E0D14A464146204600F0D2FFFF
:101C600008B120206065A06830B109E084F85170A7
:101C700084F85050032086E72068C168806800908F
:101C800084F8517004F8505F60680028F3D0012098
:101C900079E72DE9FF4F81B01D46934604464FF08A
:101CA00001090E9EFFF78CF8074694F85100616811
:101CB000012806D0B1F5827F3CD1A168C9BB0428B8
:101CC00038D10298002871D0BBF1000FFBD0002D55
:101CD000F9D094F8500001282CD04FF0010A84F874
:101CE00050A094F85100042802D0052084F8510037
:101CF0004FF00008C4F85480C4F838B0E587A587D1
:101D000002992163E586A586C4F84080C4F8448022
:101D100020680168490603D4016841F04001016070
:101D2000E068B0F5006F606808D0F0B3012D49D0CD
:101D300081E0FFE7022005B0BDE8F08F08B1012D7A
:101D400039D1206B21680088C860206B801C20631B
:101D5000E08E401EE0862EE02068816889070FD55E
:101D6000E18E69B1B9F1010F0AD1216B0988C16017
:101D7000206B801C2063E08E401EE0864FF000093F
:101D800020688168C9070CD0E18F51B1C068A16B90
:101D90000880A06B801CA063E08F401EE0874FF09E
:101DA0000109FFF70DF8C01B01E00BE067E0B0424E
:101DB00001D3701C50D1E08E0028CDD1E08F0028D7
:101DC000CAD13EE0206B216800780873206B401C6C
:101DD0002063E08E401EE0862DE020688168890740
:101DE0000FD5E18E69B1B9F1010F0AD1216B0978E4
:101DF0000173206B401C2063E08E401EE0864FF094
:101E0000000920688168C9070CD0E18F51B1C06812
:101E1000A16B0870A06B401CA063E08F401EE087A0
:101E20004FF00109FEF7CCFFC01BB04202D3701C7B
:101E300001D011E086B1E08E0028CED1E08F0028DD
:101E4000CBD13A463146204600F0DCFE50B120208E
:101E5000606584F8508012E084F851A084F85080C6
:101E6000032068E7A06818B92068C16880680090FE
:101E700084F851A084F85080606D0028F1D00120D2
:101E800059E7000030B590F851404568012C06D064
:101E9000B5F5827F24D1856815BB042C20D1E9B12A
:101EA000E2B1DBB190F85040012C19D0012480F848
:101EB000504090F85140042C02D0052480F8514045
:101EC0000024446501638386C38682638387C38756
:101ED000C16839B10E4901640E4906E0012030BDE8
:101EE000022030BD0C4901640C49416401680A6854
:101EF000520603D40A6842F040020A6080F850405B
:101F00000068416841F0E0014160002030BD000000
:101F1000FD2900085D2A00082D2A00088D2A0008E6
:101F2000704710B5401EB0F1807F01D3012010BD75
:101F30004FF0E02460610F21601701F0CAF9002022
:101F4000A06107202061002010BD7047704700008D
:101F5000F8B5016804460868CA684B6910F00F0FAD
:101F60004FF0000559D003F0010602F49077374393
:101F700065D0C10705D0D10503D5616C41F00101E1
:101F80006164410705D5D90703D0616C41F00201B6
:101F90006164810705D5D90703D0616C41F0040164
:101FA0006164010707D502F02001314303D0616C61
:101FB00041F008016164616C00293AD0800604D5C3
:101FC000900602D5204601F025F820684069616C32
:101FD000C0F38010090700D460B3204600F0E5FF8D
:101FE00020684069400621D52068143050E8001F61
:101FF00021F0400140E80012002AF5D1E06BA8B1C1
:102000006E490165E06BFEF74FFC002811D0E06BD4
:10201000016D01B0BDE8F040084783060FD5930677
:102020000DD52046BDE8F84000F0F4BF2046FFF78C
:102030008DFFF8BD2046FFF789FF6564F8BD266B6C
:102040002023012E7DD1C6067BD5D60679D508681A
:102050004868009048694FF00206400641D5E16BA0
:10206000086840680004000CE8D0A28D8242E5D9DF
:10207000E085C869B0F5807F2DD020680C3050E82D
:10208000001F21F4807140E80012002AF5D1206879
:10209000143050E8001F21F0010140E80012002A2E
:1020A000F5D12068143050E8001F21F0400140E8CD
:1020B0000012002AF5D184F84230256320680C30E4
:1020C00050E8001F21F0100140E80012002AF5D16D
:1020D000E06BFEF7A0FB6663A08DE18D401A81B234
:1020E0002AE0A08DE18D401A81B2E08D0028A5D0B4
:1020F0000029A3D022680C3252E8000F20F490701F
:1021000042E80007002FF5D12068143050E8002F76
:1021100022F0010240E80027002FF5D184F8423078
:10212000256320680C3050E8002F22F0100240E8B0
:102130000023002BF5D166632046FFF706FFF8BDAC
:10214000FFE705062BD5150629D594F8410021286F
:10215000F5D1A068B0F5805F01D12069B0B1206AE7
:10216000411C2162216800784860E08C401E000418
:10217000000CE084E3D12068C16821F08001C160D7
:102180002068C16841F04001C160D8E7206A00883A
:10219000C0F308004860206A801C2062E5E7400622
:1021A000CDD55006CBD5CA68204622F04002CA6081
:1021B00084F8413000F0BDF9C1E70000AD2E000801
:1021C00070B5040004D094F84100002510B106E079
:1021D000012070BD84F84050204600F023F82420F0
:1021E00084F841002068C16821F40051C160204694
:1021F00000F072FF2068016921F4904101612068BC
:10220000416921F02A0141612068C16841F400510F
:10221000C1606564202084F8410084F84200656351
:10222000002070BD2DE9F04786B0044614216846B1
:10223000FEF7DEF86E48DFF8B481D4F800C06C4FCA
:1022400014380221032307266A4A0025C4451FD1FA
:102250003C6844F010043C603C6804F010040594B1
:10226000046844F001040460006800F00100059077
:1022700058028DE82300CDE9033669461046FEF783
:10228000A9FC002211462520FEF700FF252056E07C
:10229000DFF864814FF0400A4FF48069C44553D1A0
:1022A000534F3F1FD7F800C04CF4003CC7F800C0A4
:1022B0003F6807F400370597076847F00107076094
:1022C000006800F0010005900C208DE82300CDE9A6
:1022D000033669461046FEF77DFC494E47484FF0ED
:1022E00000683060C6E90185C6E903597561B561CA
:1022F000F56135624F4630467562FEF7B7FB08B1AF
:10230000FEF787FAE663B4633D4E3C48603618300A
:10231000C6E903577561B561F5613562756286E896
:1023200001053046FEF7A2FB08B1FEF772FAA6637C
:10233000002211462620B463FEF7A8FE2620FEF7F1
:1023400097FE06B0BDE8F0872E4EB445F9D13E6841
:1023500046F020063E603E6806F0200605960668B8
:1023600046F001060660006800F0010005904FF499
:10237000C0508DE823000820CDE90330694610469F
:10238000FEF728FC1E4E2048C0364FF02068306013
:10239000C6E90185C6E903597561B561F561356224
:1023A0004F4630467562FEF761FB08B1FEF731FA21
:1023B000E663B463154E1448C6E903577561B56109
:1023C000F56135627830756286E801053046FEF7C2
:1023D0004DFB08B1FEF71DFAA66300221146472007
:1023E000B463FEF753FE4720A9E700000010014048
:1023F000443802400000024000440040886002402F
:10240000FC03002000140140286402401C05002049
:1024100090F84230202B01D00220704721B11AB130
:102420000023036300F0DEBE0120704790F84230C5
:10243000202B01D00220704721B11AB10023036381
:1024400000F018BF0120704770B50546006830499C
:10245000884212D12F4E0024305D57280AD13119FD
:102460008878882806D11A222B48FDF77CFF2A4855
:1024700001F024F8641C1A2CEEDB284928688842F5
:1024800017D1244E00244036305DC82808D13119B8
:102490008878162804D120481A221A30FDF763FFE5
:1024A000641C1A2CF0DB1C498831A1F16E0001F08C
:1024B0001BF81B492868884217D1164D0024803527
:1024C000285DC82808D129198878162804D112480F
:1024D0001A223430FDF747FF641C1A2CF0DB0E493A
:1024E000A831A1F1740000F0FFFF0A4940224031F9
:1024F0000C48FFF78DFF0749402280310A48FFF75B
:1025000087FFBDE87040402202490848FFF78EBFB0
:102510000010014028000020280100200044004055
:10252000001401406C030020B403002024030020A9
:1025300070477047FEE7000070B5094D002210217A
:102540002846FEF737FCB02000F0BEFB00F090FB01
:102550000446012210212846FEF72CFC204670BDBF
:102560000000024010B5012210210748FEF722FCAE
:102570000A240648FFF75FF8012804D0641E14F00F
:10258000FF04F6D1002010BD0000024074020020BC
:102590002DE9F0410F4C1646884605461F4600229D
:1025A00010212046FEF706FC284600F08DFB042192
:1025B000404600F093FB304600F086FB314638463B
:1025C00000F08CFB2046BDE8F04101221021FEF70F
:1025D000F1BB00000000024070B50B4D0446002224
:1025E00010212846FEF7E6FB032000F06DFB204695
:1025F00000F06AFB00F03CFB044601221021284653
:10260000FEF7D8FB204670BD000002402DE9F041E6
:102610000C4E14460D460746002210213046FEF7A8
:10262000C9FB384600F050FB294622460A230648DB
:10263000FFF742F93046BDE8F04101221021FEF7D4
:10264000B9BB0000000002407402002070B5094DC3
:10265000002210212846FEF7ADFBA02000F034FB3D
:1026600000F006FB0446012210212846FEF7A2FBDB
:10267000204670BD0000024070B5084C054600229F
:1026800010212046FEF796FB284600F01DFB204651
:10269000BDE8704001221021FEF78CBB0000024013
:1026A00070B580210F2000F023F80A2404250E20A5
:1026B000FFF792FFB5EB501F01D1012070BD641EE2
:1026C00014F0FF04F3D1002070BD10B500210F20DD
:1026D00000F00EF80A240E20FFF77EFF400905D017
:1026E000641E14F0FF04F6D1002010BD012010BDBF
:1026F00070B50C4C0E460546002210212046FEF710
:1027000059FB022000F0E0FA284600F0DDFA3046DE
:1027100000F0DAFA2046BDE8704001221021FEF7F1
:1027200049BB0000000002402DE9F0410D4E174664
:102730000C460546002210213046FEF73BFB0220E6
:1027400000F0C2FA284600F0BFFA601B401CC1B27C
:10275000384600F0C3FA3046BDE8F04101221021AE
:10276000FEF728BB00000240194808B5016841F493
:1027700000110160016801F400110091016841F449
:10278000800101600068002200F480000090114682
:102790001020FEF77BFC1020FEF76AFC0022114699
:1027A0001120FEF773FC1120FEF762FC0022114697
:1027B0003920FEF76BFC3920FEF75AFC0022114647
:1027C0004520FEF763FCBDE808404520FEF750BCFD
:1027D000303802402DE9F04186B014216846FDF7FB
:1027E00007FE1F480024016841F080010160016874
:1027F00001F080010591016841F00101016001686B
:1028000001F001010591016841F0020101600068D9
:10281000144F00F0020048F21005059000222946EE
:102820003846FEF7C7FADFF8408042F23806002249
:1028300031464046FEF7BEFA00950125CDE9015428
:10284000694638460394FEF7C5F90096CDE9015470
:10285000694640460394FEF7BDF906B0BDE8F08135
:102860003038024000000240000402400D4810B51C
:102870000B4901600C49416000214FF480428160A6
:10288000C0E9031241618161C1610162FEF79EFAF4
:10289000002803D0BDE81040FDF7BBBF10BD00000D
:1028A0000054004020020020A0860100104810B50E
:1028B0000E4901604FF48271416000218160C16066
:1028C0004FF400720161C0E905121022C0E907212E
:1028D000416281620A21C162FEF72EFF002803D007
:1028E000BDE81040FDF795BF10BD0000003001406D
:1028F00074020020104810B50E4901604FF4827137
:10290000416000218160C1604FF400720161C0E943
:1029100005123822C0E90721416281620A21C162A1
:10292000FEF70AFF002803D0BDE81040FDF771BF95
:1029300010BD000000380040CC0200200C4810B54B
:102940000A4901604FF4E1314160002181600C22AD
:10295000C160C0E904128161C161FFF731FC002848
:1029600003D0BDE81040FDF754BF10BD001001407A
:10297000240300200C4810B50A4901600B4941604E
:10298000002181600C22C160C0E904128161C16133
:10299000FFF716FC002803D0BDE81040FDF739BF53
:1029A00010BD0000004400406C030020A068060039
:1029B0000C4810B50A4901604FF4E1314160002133
:1029C00081600C22C160C0E904128161C161FFF71E
:1029D000F7FB002803D0BDE81040FDF71ABF10BD7B
:1029E00000140140B4030020FEE7FEE7704700003A
:1029F0000148FEF723BE0000CC0200200168C96830
:102A0000826B1180816B891C8163C18F491EC187D4
:102A1000C18F002909D101684A6822F040024A604A
:102A2000C18E002901D100F049B870470168097BC7
:102A3000826B1170816B491C8163C18F491EC187F4
:102A4000C18F002909D101684A6822F060024A60FA
:102A5000C18E002901D100F031B87047016B0268C6
:102A60000988D160016B891C0163C18E491EC18632
:102A7000C18E002909D101684A6822F080024A60AB
:102A8000C18F002901D100F019B87047016B0268AD
:102A900009781173016B491C0163C18E491EC186FF
:102AA000C18E002909D101684A6822F080024A607B
:102AB000C18F002901D100F001B8704738B5044634
:102AC000214845F6C0510068B0FBF1F0642148434D
:102AD0000090FEF775F902462068416821F0200158
:102AE0004160009888B1401E00902068806880078F
:102AF000F7D56421204600F085F818B1606D40F0EC
:102B000020006065A06828B108E0606D40F02000FA
:102B10006065EEE72068C16880680090616D012003
:102B200029B184F851002046FEF784FD38BD94F8A1
:102B3000511084F851000429204602D0FFF7F0F923
:102B400038BDFEF7B7FF38BD2400002038B5044675
:102B50000068416821F060014160FEF731F90246EA
:102B60006421204600F020F818B1606D40F020008C
:102B70006065A06818B92068C1688068009001206D
:102B800084F85100606D0028204602D0FEF752FD07
:102B900038BDFEF78FFF38BD10B5806B0021C187AF
:102BA000C186FEF747FD10BDF8B5044640684FF4F6
:102BB0008273984221D1A0684FF48065B0F5004F30
:102BC00001D0A8420AD12068066826F040060660B7
:102BD0006068984211D1A068A8420ED000920B46BE
:102BE00000228021204600F081F8002804D0606D8A
:102BF00040F0200060650320F8BD00920B460022E3
:102C00000121EFE7F8B515460E460B460092044643
:102C10000122022100F06AF8A0B9134813490068A4
:102C2000B0FBF1F04FF47A71484300906068B0F562
:102C3000827F0DD13346002280212046009500F08E
:102C400055F870B1606D40F0200060650320F8BD5C
:102C5000009830B1401E009020688068C043000694
:102C6000F6D50020F8BD00002400002000366E01DB
:102C700008B50A23012269460248FEF71DFE9DF8A9
:102C8000000008BD740200200168C968826B1180D1
:102C9000816B891C8163C18F491EC187C18F002947
:102CA00001D1FFF753BF70470168097B826B117038
:102CB000816B491C8163C18F491EC187C18F002967
:102CC00001D1FFF743BF704701B50A2301226946CE
:102CD0000148FEF72BFF08BD740200200A4601469A
:102CE0000A230148FEF722BF740200202DE9F843B1
:102CF0001E46914688460446089DFEF761F8401B33
:102D0000351AFEF75DF8074625480068C0F3CB305A
:102D1000684338E0701C37D0FEF752F8C01BA84259
:102D200003D215B1009860B32CE02068416821F00F
:102D3000E00141606068B0F5827F0BD1A068B0F51A
:102D4000004F02D0B0F5806F04D12068016821F0F7
:102D500040010160A06AB0F5005F09D120680168F8
:102D600021F4005101602068016841F400510160C4
:102D7000012084F85100002084F850000320BDE8B1
:102D8000F8830025401E00902068816838EA010021
:102D900004D000214945BDD10020F0E70121F9E729
:102DA000240000207047000000B5164A00F580603E
:102DB00085B09070010AD17040F2694201920122FF
:102DC0008DF8002008228DF80C108DF808202022A4
:102DD0008DF809208DF80D00002281F020018DF87A
:102DE0000A2041408DF80B208DF80E2081F0FA006A
:102DF000FA228DF810008DF80F206846FDF75AFC76
:102E000005B000BD0C000020FEF7D8B830B593B077
:102E100030216846FDF7ECFA14210CA8FDF7E8FA1A
:102E20001C480024016841F080510160006800F0F6
:102E3000805011901848016841F4404101600068D9
:102E4000022500F4404011900120039010200490CE
:102E5000009506950820CDE907404820CDE90905F1
:102E600004200B906846FEF72FFA08B172B6FEE711
:102E70000F20CDE90C054FF48050CDE90E40022122
:102E80000CA81094FEF734F9002801D072B6FEE7C2
:102E900013B030BD40380240007000400248016865
:102EA00041F470010160704788ED00E010B5806B5F
:102EB0000021C185C184FFF749F810BD70B5846B4E
:102EC0002068406994F84110C0F3C0100025212902
:102ED00004D118B1E584204600F08EF820684069DE
:102EE00094F84210C0F38010222904D118B1E5856E
:102EF000204600F05AF8606C40F0100060642046F4
:102F0000FFF724F870BD10B50146806B09680968A9
:102F10004FF00002C9052ED4C28501680C3151E87A
:102F2000003F23F4807341E80034002CF5D10168A0
:102F3000143151E8003F23F0010341E80034002C34
:102F4000F5D10168143151E8003F23F0400341E816
:102F50000034002CF5D1202180F84210016B0129AA
:102F600009D101680C3151E8003F23F0100341E81A
:102F70000034002CF5D14263016B012902D0FFF728
:102F800063FA10BD818DFEF7E0FF10BD10B5806BB8
:102F900001214163016B012902D0FFF7C9FA10BD7D
:102FA000818D4908FEF7D1FF10BD01680C3151E851
:102FB000002F22F4907241E80023002BF5D1016824
:102FC000143151E8002F22F0010241E80023002BC8
:102FD000F5D1016B012909D101680C3151E8002FAD
:102FE00022F0100241E80023002BF5D1202180F8C7
:102FF000421000210163704701680C3151E8002F35
:1030000022F0C00241E80023002BF5D1202180F8F6
:103010004110704708B590F84210222901D00220D3
:1030200008BD82684FF480539A4201D1016921B1F1
:10303000816A9A421BD04AB10AE00268816A5268EA
:10304000C2F308020A80816A891C08E0026972B131
:103050000268526802F07F020A70816A491C81622C
:10306000C18D491E0904090CC18503D01BE002680B
:103070005268F1E70168CA6822F02002CA6001685C
:10308000CA6822F48072CA6001684A6922F00102AB
:103090004A61202180F8421000214163026B012A1D
:1030A00003D0FFF7D1F9002008BD016301680C319E
:1030B00051E8002F22F0100241E80023002BF5D147
:1030C00001680A68D20602D50A6849680091818DB4
:1030D000FEF73BFFE7E7000070B5044600680169B2
:1030E000E26821F44051114301612169A068E2695D
:1030F00008436169114308432168CA6849F20C63B7
:103100009A430243CA6020684169A26921F4407170
:103110001143416131492068884202D030498842D8
:1031200002D1FEF78FF801E0FEF77CF8E269002398
:10313000192164253226B2F5004F626828D0A0FB21
:103140000101930F9200FDF797F80146B0FBF5F0EF
:103150006FF01802504301EB800006EB0010B0FB4B
:10316000F5F000F0F002B1FBF5F002EB0012B1FB5C
:10317000F5F06FF01803584301EB800006EB0010E8
:10318000B0FBF5F000F00F0021681044886070BDBE
:10319000A0FB010192185B41FDF76EF80146B0FB00
:1031A000F5F00201B1FBF5F06FF01803584301EBA5
:1031B000800006EBC000B0FBF5F000F0F80002EB79
:1031C0004002B1FBF5F0584301EB800006EBC00074
:1031D000B0FBF5F000F00700D6E70000001001405A
:1031E0000014014038B581620446828500201346F0
:1031F0006064222284F84220E56B1B4AEA63E56B97
:103200001A4A2A64E56B1A4AEA64E26B10650A46B8
:103210002168E06B091DFDF793FC20680168406898
:103220000090206948B120680C3050E8001F41F43C
:10323000807140E80012002AF5D12068143050E86F
:10324000001F41F0010140E80012002AF5D120687A
:10325000143050E8001F41F0400140E80012002AFD
:10326000F5D1002038BD0000072F00088D2F000881
:10327000BD2E000881628285C28500214164222121
:1032800080F84210016921B10168CA6842F4807275
:10329000CA6001684A6942F001024A610068C16877
:1032A00041F02001C1600020704700000148FEF796
:1032B0004FBE0000240300200148FEF749BE000075
:1032C0006C0300200148FEF743BE0000B403002059
:1032D000FEE70907090E002804DB00F1E02080F872
:1032E0000014704700F00F0000F1E02080F8141D7A
:1032F0007047022907D000219170D17040015070B1
:10330000000A10707047D070000A9070000A00F038
:103310000303C10001F0E0001844083000F0EB00A6
:103320005070080AEDE700002DED048B86B0FDF724
:103330004DFEFFF76BFDFFF74DFAFFF715FAFFF7AC
:10334000B5FAFFF7FBFAFFF715FBFFF7D3FAFFF724
:103350008DFAFFF72DFB40224A494B48FFF766F8EC
:103360004849402240314948FFF752F84549402238
:1033700080314748FFF74CF842494022C031454868
:10338000FEF744FBFDF7CAF84FF47A742046FDF7C8
:103390000FFC0020FFF708FD2046FDF709FC3E4D1D
:1033A0009FED3E9B9FED3F8B404CA5F16006A5F144
:1033B0004007688838B1AC3800F095F941EC100B43
:1033C00053EC192B0AE07088002856D000F0A2F9BF
:1033D0009FED371B41EC100B53EC112B51EC100BF4
:1033E00000F0ACF953EC182B00F0A6FA00F04CF901
:1033F000A080A08880B2FFF7D7FC6846FDF7F3F8FD
:1034000018B325489DF80910203001709DF80A1066
:1034100041709DF80B1081709DF80C2082809DF802
:103420000D10C1809DF80E3003729DF80F3043726D
:103430009DF810308372204B03EB0222114400EE02
:10344000101AB8EEC00A80ED030A40220D490E485A
:10345000FEF7ECFF0B49402240310C48FEF7D8FF45
:103460000849402240310A48FEF7D2FF0549402270
:10347000C0310848FEF7CAFA9BE7788800289AD13D
:10348000B7E7000028000020240300206C03002080
:10349000B4030020CC020020F001002054E3A59BDF
:1034A000C420DC3F00000000008076400C000020BB
:1034B000E5D022DBF97ED63F00FCFFFF094800F192
:1034C000680102890A8042894A8082898A80C28989
:1034D000CA80028A0A81428A4A81828A8A81C08A93
:1034E000C88170472801002070B5124A002313706C
:1034F00093600323537000235578445D6D1C557011
:1035000015789668AC40344308359460157014788B
:103510000B2CF1D31489C4F30A0421F813409468E6
:103520005B1CE40A94601478DBB20B3C1470102B23
:10353000EDD370BD0C00002010B591EA030F48BF19
:1035400083F0004300F10082841A71EB030C05D272
:10355000121943EB0C03001B61EB0C01DFF824E1B3
:103560004FEA1154A4EB135C1EEA430F18BF9EEA06
:10357000445F73D023EA0E03DCF1200E21EA0451EC
:1035800043F4801332D322FA0CFE10EB0E0023FA20
:103590000CFE41EB0E01CCF1200E03FA0EFE10EBF7
:1035A0000E0051F10001B1F5801FCCF1200E32D296
:1035B00001EB045112FA0EF2BDE8104058BF7047FB
:1035C000401C38BF5FEA420218BF7047002814BF92
:1035D00020F0010041F100014FEA410313F5001F03
:1035E00038BF7047A1F1C04100F0A0B9012A43EBF8
:1035F0000302ACF1200CDCF11F0E32BF4FF0000EC5
:1036000023FA0CF310EB030041EB0451B4EB115F10
:10361000D0D0A1EB045101F5801149085FEA3000D8
:1036200001EB04510ED350F1000038BF12FA0EFE28
:1036300008D1BDE81040C9E7401C38BF5FEA42022C
:10364000CAD1C3E7BDE810404FEA410313F5001F9C
:1036500038BF7047A1F1C04100F068B99EEA445FED
:1036600008D011EA5E0FBDE8104004BF01F0004130
:1036700000207047BDE8104070B500F009F900BFA8
:1036800064FBBE3E0000E0FF4FEA41034FEA5353A4
:10369000A3F58063D3F11E03C8BFD3F1210C0CDD69
:1036A0004FF0004242EAC12242EA505232FA03FC91
:1036B0008CEAE17CACEBE1707047102BC4BF0020BA
:1036C000704703F5787CBCF1FF3F04D06FF00042F7
:1036D00082EA2100704770B500F0DAF84992248040
:1036E00000207047F2E710F0004248BF4042B0FAB5
:1036F00080F310FA03F10AD0C3F11D0303F58063D0
:103700004FEA415002EB035202EBD12170474FF0D8
:1037100000007047B0FA80F310FA03F10AD0C3F149
:103720001D0303F580634FEA41504FEA035202EB59
:10373000D12170474FF0000070470000DFF848C10A
:1037400070B51CEA111E1EBF1CEA13159EEA0C0F71
:1037500095EA0C0F00F06F8081EA030423EA4C1312
:103760004EEAD47E21EA4C1141F4801143F48013D7
:10377000AE44A1FB024CA0FB0365AEF17F7E36197F
:1037800055EB0C05A1FB034C4CF10003A0FB021C04
:1037900016EB0C06654153F10003094218BF46F0D1
:1037A000010613F4007F0BD14FEA03314FEA0530D5
:1037B000340341EA155140EA16506FF003020AE063
:1037C0004FEAC3214FEAC520F40241EA555140EACD
:1037D00056506FF0020202EB2E4201EB025585EAD1
:1037E000CE710AD05FEA440C18BF24F0004450F1B7
:1037F000000041F1000120EAD47040F2FE7C6245F5
:1038000000D270BDA84214BF4FF080444FF0404436
:10381000002E08BF0024BEF1806FA8BFA1F1C041F7
:10382000BDE8704080F282804FF0000001F1C0419D
:1038300001F0004170479EEA0C0F0CEA131518BF07
:1038400095EA0C0F06D04FF0000081EA030E0EF04F
:10385000004170BD00F01CF88900013E00F007B87F
:1038600000F009B84FEA430C5FEA5C5C08D081EADB
:10387000030100F05BB84FEA410C5FEA5C5CF6D1F3
:103880004FF00000014970470000FF070000F87F7B
:103890000EF1020E2EF0030E5EF8046B364205D4D4
:1038A000012A43EB030515F5001F12D8012841EB4F
:1038B000010C1CF5001F0CD80ED14FEAD17C15F578
:1038C000001F0CEB4C0C0CF1020C08BF4CEBD37C32
:1038D00004E04FF0080C01E04FEAD37C0CEB4C0500
:1038E00026FA05F606F00706B6F1040C06D20EEB32
:1038F000860CBDE870404CF0010C6047DFE80CF02E
:10390000090B02024FF000414FF00000A1F5002129
:1039100070BD19461046012851EB010418BFD4F5BB
:10392000001484BF002001F0004170BD0808A0F51C
:1039300000114FEA3101704710B591EA030F48BFFB
:1039400083F000433FF500AE841A71EB030C07D2FD
:1039500012198CF0004C43EB0C03001B61EB0C01C3
:10396000DFF8A4E14FEA1154A4EB135C1EEA430F05
:1039700018BF9EEA445F00F0B08023EA6E03524213
:1039800021EA0451C3EB6E0338BF5B1EDCF1200E4D
:1039900025D322FA0CFE10EB0E0043FA0CFE41EB8D
:1039A0000E01CCF1200E03FA0EFE10EB0E0051F1C9
:1039B0000001CCF1200E29D412FA0EF201EB0451D1
:1039C000BDE8104058BF7047401C1CBFB2F1004F0B
:1039D000704700280CBF491C20F00100704712EB13
:1039E000020E43EB030218BF4FF0010E4EEA4202F3
:1039F000ACF1200CDCF11E0E54D943FA0CFE10EB96
:103A00000E0051F1FF31CCF11E0ED5D50EF1010E95
:103A100012FA0EFE404141EB010101EB445C5FEA0A
:103A20005C5C10D910EBDE7001EB045138BFBEF1C5
:103A3000004FBDE8104018BF704700280CBF491C5C
:103A400020F00100704730D24FEAD42C11F500115C
:103A500024F400641BD0B1FA81F20B3AA41AA41E1C
:103A6000D2F12003914030FA03F31943904001EB67
:103A7000CC71002C01EB0451BDE81040A8BF704789
:103A800001F1C0414FF0000001F000417047B0FA71
:103A900080F310FA03F100D110BDE41A173C480579
:103AA000C90AE4E701EB045110BD491001EB0451D0
:103AB000BDE810404FEA300002E04FF000017047CF
:103AC0004A0008BF0042F8D0B2F5001F28BF704777
:103AD00001F000414FF0000070479EEA445F07D0BC
:103AE00011EA5E0FBDE8104004BF002100207047BE
:103AF000BDE8104070B5FFF7CBFE00BF40DFF63EDB
:103B000083F00041104670470000E0FF4FF0407026
:103B1000E1EE100A704700061016000610160000AD
:103B2000000000000000010203040607080900006D
:103B30000000010203040000583B000800000020C0
:103B400028000000D4010008803B00082800002065
:103B5000B80B0000F00100080000000000000000A9
:103B60000000000000000000000000000000000055
:103B70000100000010000000000000000024F4001C
:040000050800019955
:00000001FF
